:020000009F2837
:100006008312031385140D30FC00FB30FD00FD0B3D
:100016000A28FC0B0A280000000085100D30FC00A1
:10002600FB30FD00FD0B1528FC0B15280000000019
:020036000800C0
:0E00380083120313051027088600032008001A
:0E004600831203130514260886000320080009
:0E0054008312031321088A002008820008008E
:10006200013083120313A7001C202730FC00F53057
:0C007200FD00FD0B3A28FC0B3A280800AA
:10007E00831203132208A0002308A1002A208A114C
:10008E000A12F0007008031959282208A00023084C
:10009E00A1002A208A110A12A6002320A20A0319FF
:0600AE00A30A3F28080030
:1000B400831203132208003A031D642880302304AA
:1000C400A5006D282208013A031D6C28C0302304C2
:1000D400A5006D2873282508A7001C202408A60065
:0400E40023200800CD
:1000E800023083120313FB000430FC00BA30FD0019
:1000F800FD0B7C28FC0B7C28FB0B7C28000038308F
:10010800A7001C200C30A7001C200630A7001C20CC
:04011800312008008A
:10011C00831203132208013A031D97282308A40015
:10012C009A282308403EA40080302404A7001C20F9
:02013C000800B9
:10013E000730831203139F008316860185017420F6
:10014E000230FB000430FC00BA30FD00FD0BAD2880
:10015E00FC0BAD28FB0BAD28000031200930A200AE
:10016E000130A3003F200130A2000F30A3008E20EB
:10017E00C030A7001C201930A2000130A3003F2080
:10018E001530FB004B30FC00BE30FD00FD0BCD28C2
:10019E00FC0BCD28FB0BCD2800003120E930A2004E
:1001AE000030A3003F20A2010F30A300C830A400EE
:1001BE005A20C030A7001C20F930A2000030A30046
:0401CE003F20E828BE
:1001D20043346C34613473346534203464346534AC
:1001E20020344D346934633472346F3473340034E0
:1001F20046346534733420344134723461346734A4
:100202006F346E34203455344E3441344D3400341E
:1002120048346F346C34613420344D3475346E3468
:1002220064346F342034203430345F346F3400341B
:10023200423479343A34453472346E34653473342A
:0402420074340034DC
:02400E006A2125
:00000001FF
